:100FD500011407040F40A00000010D05011564016F
:100FE500130A011D02012000012200010A00010B64
:100FF50000010E00011700012310010C000116006D
:0810050002080000021B0000BC
:10100E0075A882758902758A06758C06D28CC2887F
:03101E00D2A82233
:03000B00020F7071
:100F7000C0E0C0D0E50EC3950A5018E520600AC253
:100F800091D290C293D2928012D291C290D293C247
:100F9000928008C291C290C293C292E50EC3950B93
:100FA0005018E522600AC297D296C295D294801258
:100FB000D297C296D295C2948008C297C296C29523
:100FC000C294050EE50EC395154005750E00051774
:050FD000D0D0D0E0329A
:020DBF008F287B
:100DC100AC28EC120A08AB12AA11A910A80F12083C
:100DD100F8C004C005C006C007AC08AD09EC120A92
:100DE10003D003D002D001D000120807120A3C8EB2
:100DF100088F097C007D64120ACF8E1B8F1CE515BC
:100E0100C313FF7E00D3E51C9F7480F8651B9840D7
:100E11000F8E1B8F1CE51575F064A4FFAEF0802BBF
:100E2100E515C313FFC3E49FFFE49400FEC3E51C73
:100E31009FEE6480F8E51B648098501A8E1B8F1C0E
:100E4100AF157E007CFF7D9C120ABD7C007D0212E5
:100E51000ACF8E088F09E52865166038AF16EF3383
:100E610095E0FEAD28ED3395E0FCC3ED9FFDEC9ED2
:100E7100FCAF0D7E00120ABD8E188F19851D1AE573
:100E810028FD3395E0FCAF147E00120ABD8E1E8F43
:100E91001F852816E51AD394004004151A8005E42D
:100EA100F518F519E51F251CFFE51E351BFEE51993
:100EB1002FFFE5183EFEAD15D3EF9D7480F86E98B7
:100EC10040067E00AF05801AC3E49515FDE4940049
:100ED100FCC3EF9DEC6480F8EE6480985004AE048E
:020EE100AF055B
:010EE30022EC
:100B8E00E4F526F527F59012100E20B605E4F59043
:100B9E0080F8AF80EF120B130BDA000C13010C1D53
:100BAE00020C18030C27040C22060C31080C2C0C1A
:100BBE000C54100C0E180C4A200C4F300C40400CEC
:100BCE0045600C36800C3BC000000C59C3E5236415
:100BDE0080947F4009D3E523648094814005E5230A
:100BEE00B41003E4F523D3E52364809475500375A4
:100BFE0023F3C3E5236480948B405E75230D8059E7
:100C0E00E4F523805475230B804F752309804A75B4
:100C1E00230780457523058040752303803B75238C
:100C2E0002803675230180317523F5802C7523F7EC
:100C3E0080277523F980227523FB801D7523FD8087
:100C4E00187523FE80137523FF800EE52364106054
:100C5E0008752310E4F50AF50B85230CE50C6410DA
:100C6E007003020B98E517C394015009E50C651645
:100C7E007003020B98E4F517C3E50C64809480852D
:100C8E001321AF0C120DBF8E268F27C3E52664806D
:100C9E0094805003020D32E515FB7A002527FFEAFA
:100CAE003526FEAD217C00120ABD7D0A120ACF8EBA
:100CBE00248F25D3E5259B7480F86524984004AFD6
:100CCE00158002AF258F0AE4F520E52725E0FFE524
:100CDE002633FEE515FB7A00C39FFFEA9EFEAD218B
:100CEE007C00120ABD7D0A120ACF8E248F25C3E521
:100CFE0024648094805010752201C3E49525F52557
:100D0E00E49524F5248003E4F522D3E5259BEA64DB
:100D1E0080F8E5246480984004AF158002AF258FDB
:100D2E000B020B98E52725E0FFE52633FEE515FBC4
:100D3E007A002FFFEA3EFEAD217C00120ABD7D0A2D
:100D4E00120ACF8E248F25C3E52464809480501020
:100D5E00752001C3E49525F525E49524F52480033B
:100D6E00E4F520D3E5259BEA6480F8E524648098B9
:100D7E004004AF158002AF258F0AE515FB7A00C33C
:100D8E009527FFEA9526FEAD217C00120ABD7D0A4D
:100D9E00120ACF8E248F25D3E5259B7480F8652407
:100DAE00984004AF158002AF258F0BE4F522020B9D
:010DBE00989C
:10080000020AA8E86480F8E933E83360110460F074
:10081000ED33EC337009E8FCE9FDEAFEEBFF22045E
:1008200060DED3EB9FEA9EE99DE8C2E78CF0C2F759
:1008300095F0400CE8CCF8E9CDF9EACEFAEBCFFB25
:10084000120A7385D0F05804700320D5B3E8047001
:10085000075002B2D5020AB292D5EC0460F7E4CC9C
:10086000C0E0C398F8603B94186008400DD0E0FBEE
:10087000020A8AE4FBFAC9FC8028E830E406E4C9ED
:10088000FBE4CAFCE830E305E4C9CACBFCE8540742
:100890006010F8C3E913F9EA13FAEB13FBEC13FC4D
:1008A000D8F130F52FC3E49CFCEF9BFFEE9AFEEDF0
:1008B00099FDD0E0FBEF4E4D4C701222DB03020A93
:1008C000AFEC2CFCEF33FFEE33FEED33FDED30E704
:1008D000EB020A8AEF2BFFEE3AFEED39FDD0E0FB8A
:1008E00050130BBB0003020AB2ED13FDEE13FEEF33
:0808F00013FFEC13FC020A8A5D
:1008F800EC4D6011E8497017ED33EC3304600DE4FA
:10090800FCFFFEFD22E933E8330470F8020AA8125E
:100918000A7358046009E4CC24815006285009025F
:100928000AB2284003020AAFC0E0EB4A7044B9801B
:1009380006D0E0FB020A9EEF4E701CBD8008EBFF5C
:10094800EAFEE9FD80EBE98DF0A4FEE5F00209E19D
:10095800E9CDF9EAFEEBFFEF89F0A4FCE5F0CE89DA
:10096800F0A42EFFE435F0CD89F0A42DFEE435F097
:100978008067EF4E7005BD80D780C3EF8BF0A4ACC5
:10098800F0EE8BF0A42CFCE435F0F8EF8AF0A42C00
:10099800E5F038FCE433CB8DF0A42CFCE5F03BF813
:1009A800EE8AF0A42CFCE5F038F8E433CF89F0A403
:1009B8002CFCE5F038CF3400CE89F0A42FFFE5F009
:1009C8003EFEE433C98DF0A42EFEE5F039CD8AF061
:1009D800A42FFFE5F03EFEE43DFD33D0E0FB5007D9
:1009E8000BBB000F020AB2EC2CFCEF33FFEE33FE18
:0609F800ED33FD020A8A46
:1009FE0075F020800E75F010800575F0087D007E74
:100A0E00007F003392D530D503120B05EC33401026
:100A1E00EF33FFEE33FEED33FDEC33FCD5F0ED227C
:0E0A2E00E5F0247EA2D513CC92E7CDCEFF22B8
:100A3C00EDD2E7CD33EC3392D524814006E4FFFEB2
:100A4C00FDFC22FCE4CFCECDCC24E0501174FF8011
:100A5C00EDC3CC13CCCD13CDCE13CECF13CF0470AE
:070A6C00F030D5DE020B059E
:100A7300E9D2E7C933E833F892D5EDD2E7CD33ECC9
:070A830033FC5002B2D52242
:100A8A00EC30E7100FBF000C0EBE00080DBD0004CD
:100A9A000BEB6014A2D5EB13FCED92E7FD2274FF79
:100AAA00FCFDFEFF22E480F8A2D574FF13FC7D80D2
:030ABA00E480EFE6
:03000000020EE409
:0C0EE400787FE4F6D8FD758128020F2B02
:100ABD00EF8DF0A4A8F0CF8CF0A428CE8DF0A42E4D
:020ACD00FE2207
:100ACF00C2D5EC30E709B2D5E4C39DFDE49CFCEE42
:100ADF0030E715B2D5E4C39FFFE49EFE120B39C376
:100AEF00E49DFDE49CFC8003120B3930D507C3E471
:060AFF009FFFE49EFE22B1
:0E0B0500C3E49FFFE49EFEE49DFDE49CFC2201
:100B1300D083D082F8E4937012740193700DA3A371
:100B230093F8740193F5828883E473740293686085
:060B3300EFA3A3A380DF85
:100EF000020B8EE493A3F8E493A34003F68001F27F
:100F000008DFF48029E493A3F85407240CC8C33302
:100F1000C4540F4420C8834004F456800146F6DFD1
:100F2000E4800B0102040810204080900FD5E47E7D
:100F3000019360BCA3FF543F30E509541FFEE493C6
:100F4000A360010ECF54C025E060A840B8E493A38D
:100F5000FAE493A3F8E493A3C8C582C8CAC583CAB8
:100F6000F0A3C8C582C8CAC583CADFE9DEE780BE70
:01100D0000E2
:100B3900BC000BBE0029EF8DF084FFADF022E4CCA0
:100B4900F875F008EF2FFFEE33FEEC33FCEE9DEC69
:100B5900984005FCEE9DFE0FD5F0E9E4CEFD22EDAF
:100B6900F8F5F0EE8420D21CFEADF075F008EF2FF9
:100B7900FFED33FD4007985006D5F0F222C398FDEA
:050B89000FD5F0EA2287
:00000001FF
